{
  "contractName": "BoxingBoyz",
  "abi": [
    {
      "inputs": [
        {
          "internalType": "string",
          "name": "theBaseURI",
          "type": "string"
        },
        {
          "internalType": "uint256",
          "name": "numToken",
          "type": "uint256"
        },
        {
          "internalType": "address",
          "name": "_payments",
          "type": "address"
        }
      ],
      "stateMutability": "nonpayable",
      "type": "constructor"
    },
    {
      "anonymous": false,
      "inputs": [
        {
          "indexed": true,
          "internalType": "address",
          "name": "owner",
          "type": "address"
        },
        {
          "indexed": true,
          "internalType": "address",
          "name": "approved",
          "type": "address"
        },
        {
          "indexed": true,
          "internalType": "uint256",
          "name": "tokenId",
          "type": "uint256"
        }
      ],
      "name": "Approval",
      "type": "event"
    },
    {
      "anonymous": false,
      "inputs": [
        {
          "indexed": true,
          "internalType": "address",
          "name": "owner",
          "type": "address"
        },
        {
          "indexed": true,
          "internalType": "address",
          "name": "operator",
          "type": "address"
        },
        {
          "indexed": false,
          "internalType": "bool",
          "name": "approved",
          "type": "bool"
        }
      ],
      "name": "ApprovalForAll",
      "type": "event"
    },
    {
      "anonymous": false,
      "inputs": [
        {
          "indexed": true,
          "internalType": "address",
          "name": "previousOwner",
          "type": "address"
        },
        {
          "indexed": true,
          "internalType": "address",
          "name": "newOwner",
          "type": "address"
        }
      ],
      "name": "OwnershipTransferred",
      "type": "event"
    },
    {
      "anonymous": false,
      "inputs": [
        {
          "indexed": true,
          "internalType": "address",
          "name": "from",
          "type": "address"
        },
        {
          "indexed": true,
          "internalType": "address",
          "name": "to",
          "type": "address"
        },
        {
          "indexed": true,
          "internalType": "uint256",
          "name": "tokenId",
          "type": "uint256"
        }
      ],
      "name": "Transfer",
      "type": "event"
    },
    {
      "inputs": [
        {
          "internalType": "address",
          "name": "to",
          "type": "address"
        },
        {
          "internalType": "uint256",
          "name": "tokenId",
          "type": "uint256"
        }
      ],
      "name": "approve",
      "outputs": [],
      "stateMutability": "nonpayable",
      "type": "function"
    },
    {
      "inputs": [],
      "name": "availableToken",
      "outputs": [
        {
          "internalType": "uint256",
          "name": "",
          "type": "uint256"
        }
      ],
      "stateMutability": "view",
      "type": "function"
    },
    {
      "inputs": [
        {
          "internalType": "address",
          "name": "owner",
          "type": "address"
        }
      ],
      "name": "balanceOf",
      "outputs": [
        {
          "internalType": "uint256",
          "name": "",
          "type": "uint256"
        }
      ],
      "stateMutability": "view",
      "type": "function"
    },
    {
      "inputs": [],
      "name": "baseExtension",
      "outputs": [
        {
          "internalType": "string",
          "name": "",
          "type": "string"
        }
      ],
      "stateMutability": "view",
      "type": "function"
    },
    {
      "inputs": [
        {
          "internalType": "uint256",
          "name": "tokenId",
          "type": "uint256"
        }
      ],
      "name": "getApproved",
      "outputs": [
        {
          "internalType": "address",
          "name": "",
          "type": "address"
        }
      ],
      "stateMutability": "view",
      "type": "function"
    },
    {
      "inputs": [
        {
          "internalType": "address",
          "name": "owner",
          "type": "address"
        },
        {
          "internalType": "address",
          "name": "operator",
          "type": "address"
        }
      ],
      "name": "isApprovedForAll",
      "outputs": [
        {
          "internalType": "bool",
          "name": "",
          "type": "bool"
        }
      ],
      "stateMutability": "view",
      "type": "function"
    },
    {
      "inputs": [],
      "name": "maxPerWallet",
      "outputs": [
        {
          "internalType": "uint256",
          "name": "",
          "type": "uint256"
        }
      ],
      "stateMutability": "view",
      "type": "function"
    },
    {
      "inputs": [],
      "name": "maxPurchaseSize",
      "outputs": [
        {
          "internalType": "uint256",
          "name": "",
          "type": "uint256"
        }
      ],
      "stateMutability": "view",
      "type": "function"
    },
    {
      "inputs": [],
      "name": "name",
      "outputs": [
        {
          "internalType": "string",
          "name": "",
          "type": "string"
        }
      ],
      "stateMutability": "view",
      "type": "function"
    },
    {
      "inputs": [],
      "name": "onlyWhitelisted",
      "outputs": [
        {
          "internalType": "bool",
          "name": "",
          "type": "bool"
        }
      ],
      "stateMutability": "view",
      "type": "function"
    },
    {
      "inputs": [],
      "name": "owner",
      "outputs": [
        {
          "internalType": "address",
          "name": "",
          "type": "address"
        }
      ],
      "stateMutability": "view",
      "type": "function"
    },
    {
      "inputs": [
        {
          "internalType": "uint256",
          "name": "tokenId",
          "type": "uint256"
        }
      ],
      "name": "ownerOf",
      "outputs": [
        {
          "internalType": "address",
          "name": "",
          "type": "address"
        }
      ],
      "stateMutability": "view",
      "type": "function"
    },
    {
      "inputs": [],
      "name": "payments",
      "outputs": [
        {
          "internalType": "address payable",
          "name": "",
          "type": "address"
        }
      ],
      "stateMutability": "view",
      "type": "function"
    },
    {
      "inputs": [],
      "name": "price",
      "outputs": [
        {
          "internalType": "uint256",
          "name": "",
          "type": "uint256"
        }
      ],
      "stateMutability": "view",
      "type": "function"
    },
    {
      "inputs": [],
      "name": "renounceOwnership",
      "outputs": [],
      "stateMutability": "nonpayable",
      "type": "function"
    },
    {
      "inputs": [
        {
          "internalType": "address",
          "name": "from",
          "type": "address"
        },
        {
          "internalType": "address",
          "name": "to",
          "type": "address"
        },
        {
          "internalType": "uint256",
          "name": "tokenId",
          "type": "uint256"
        }
      ],
      "name": "safeTransferFrom",
      "outputs": [],
      "stateMutability": "nonpayable",
      "type": "function"
    },
    {
      "inputs": [
        {
          "internalType": "address",
          "name": "from",
          "type": "address"
        },
        {
          "internalType": "address",
          "name": "to",
          "type": "address"
        },
        {
          "internalType": "uint256",
          "name": "tokenId",
          "type": "uint256"
        },
        {
          "internalType": "bytes",
          "name": "_data",
          "type": "bytes"
        }
      ],
      "name": "safeTransferFrom",
      "outputs": [],
      "stateMutability": "nonpayable",
      "type": "function"
    },
    {
      "inputs": [
        {
          "internalType": "address",
          "name": "operator",
          "type": "address"
        },
        {
          "internalType": "bool",
          "name": "approved",
          "type": "bool"
        }
      ],
      "name": "setApprovalForAll",
      "outputs": [],
      "stateMutability": "nonpayable",
      "type": "function"
    },
    {
      "inputs": [
        {
          "internalType": "bytes4",
          "name": "interfaceId",
          "type": "bytes4"
        }
      ],
      "name": "supportsInterface",
      "outputs": [
        {
          "internalType": "bool",
          "name": "",
          "type": "bool"
        }
      ],
      "stateMutability": "view",
      "type": "function"
    },
    {
      "inputs": [],
      "name": "symbol",
      "outputs": [
        {
          "internalType": "string",
          "name": "",
          "type": "string"
        }
      ],
      "stateMutability": "view",
      "type": "function"
    },
    {
      "inputs": [
        {
          "internalType": "uint256",
          "name": "index",
          "type": "uint256"
        }
      ],
      "name": "tokenByIndex",
      "outputs": [
        {
          "internalType": "uint256",
          "name": "",
          "type": "uint256"
        }
      ],
      "stateMutability": "view",
      "type": "function"
    },
    {
      "inputs": [
        {
          "internalType": "address",
          "name": "owner",
          "type": "address"
        },
        {
          "internalType": "uint256",
          "name": "index",
          "type": "uint256"
        }
      ],
      "name": "tokenOfOwnerByIndex",
      "outputs": [
        {
          "internalType": "uint256",
          "name": "",
          "type": "uint256"
        }
      ],
      "stateMutability": "view",
      "type": "function"
    },
    {
      "inputs": [],
      "name": "totalSupply",
      "outputs": [
        {
          "internalType": "uint256",
          "name": "",
          "type": "uint256"
        }
      ],
      "stateMutability": "view",
      "type": "function"
    },
    {
      "inputs": [
        {
          "internalType": "address",
          "name": "from",
          "type": "address"
        },
        {
          "internalType": "address",
          "name": "to",
          "type": "address"
        },
        {
          "internalType": "uint256",
          "name": "tokenId",
          "type": "uint256"
        }
      ],
      "name": "transferFrom",
      "outputs": [],
      "stateMutability": "nonpayable",
      "type": "function"
    },
    {
      "inputs": [
        {
          "internalType": "address",
          "name": "newOwner",
          "type": "address"
        }
      ],
      "name": "transferOwnership",
      "outputs": [],
      "stateMutability": "nonpayable",
      "type": "function"
    },
    {
      "inputs": [
        {
          "internalType": "uint256",
          "name": "",
          "type": "uint256"
        }
      ],
      "name": "whitelistedAddresses",
      "outputs": [
        {
          "internalType": "address",
          "name": "",
          "type": "address"
        }
      ],
      "stateMutability": "view",
      "type": "function"
    },
    {
      "inputs": [
        {
          "internalType": "uint256",
          "name": "_count",
          "type": "uint256"
        }
      ],
      "name": "mintBB",
      "outputs": [],
      "stateMutability": "payable",
      "type": "function"
    },
    {
      "inputs": [
        {
          "internalType": "uint256",
          "name": "_count",
          "type": "uint256"
        },
        {
          "internalType": "address",
          "name": "_to",
          "type": "address"
        }
      ],
      "name": "mintOwnerTo",
      "outputs": [],
      "stateMutability": "payable",
      "type": "function"
    },
    {
      "inputs": [
        {
          "internalType": "address",
          "name": "_user",
          "type": "address"
        }
      ],
      "name": "isWhitelisted",
      "outputs": [
        {
          "internalType": "bool",
          "name": "",
          "type": "bool"
        }
      ],
      "stateMutability": "view",
      "type": "function"
    },
    {
      "inputs": [
        {
          "internalType": "string",
          "name": "baseURI",
          "type": "string"
        }
      ],
      "name": "setBaseURI",
      "outputs": [],
      "stateMutability": "nonpayable",
      "type": "function"
    },
    {
      "inputs": [],
      "name": "contractURI",
      "outputs": [
        {
          "internalType": "string",
          "name": "",
          "type": "string"
        }
      ],
      "stateMutability": "pure",
      "type": "function"
    },
    {
      "inputs": [
        {
          "internalType": "uint256",
          "name": "tokenId",
          "type": "uint256"
        }
      ],
      "name": "tokenURI",
      "outputs": [
        {
          "internalType": "string",
          "name": "",
          "type": "string"
        }
      ],
      "stateMutability": "view",
      "type": "function"
    },
    {
      "inputs": [
        {
          "internalType": "address",
          "name": "_owner",
          "type": "address"
        }
      ],
      "name": "walletOfOwner",
      "outputs": [
        {
          "internalType": "uint256[]",
          "name": "",
          "type": "uint256[]"
        }
      ],
      "stateMutability": "view",
      "type": "function"
    },
    {
      "inputs": [
        {
          "internalType": "address[]",
          "name": "_users",
          "type": "address[]"
        }
      ],
      "name": "whitelistUsers",
      "outputs": [],
      "stateMutability": "nonpayable",
      "type": "function"
    },
    {
      "inputs": [
        {
          "internalType": "bool",
          "name": "_state",
          "type": "bool"
        }
      ],
      "name": "setOnlyWhitelisted",
      "outputs": [],
      "stateMutability": "nonpayable",
      "type": "function"
    }
  ],
  "bytecode": "0x6080604052612710600b556005600c556005600d556040518060400160405280600581526020017f2e6a736f6e000000000000000000000000000000000000000000000000000000815250600e908051906020019062000061929190620004a1565b50604051806060016040528073bd836d554f431616b444a36673a4c4e05fca211073ffffffffffffffffffffffffffffffffffffffff1673ffffffffffffffffffffffffffffffffffffffff16815260200173423a694fe08c3f070f761cc5b4d2a8731ebd8d5673ffffffffffffffffffffffffffffffffffffffff1673ffffffffffffffffffffffffffffffffffffffff16815260200173eb186ef4dc1a29730beb5ba49bf129c3ef59d35673ffffffffffffffffffffffffffffffffffffffff1673ffffffffffffffffffffffffffffffffffffffff16815250600f9060036200014f92919062000532565b50604051806060016040528061034d61ffff168152602001606461ffff168152602001603761ffff1681525060109060036200018d929190620005c1565b506001601160006101000a81548160ff021916908315150217905550348015620001b657600080fd5b5060405162005273380380620052738339818101604052810190620001dc9190620006d8565b6040518060400160405280600a81526020017f426f78696e67426f797a000000000000000000000000000000000000000000008152506040518060400160405280600a81526020017f424f58494e47424f595a00000000000000000000000000000000000000000000815250816000908051906020019062000260929190620004a1565b50806001908051906020019062000279929190620004a1565b5050506200029c62000290620002fe60201b60201c565b6200030660201b60201c565b620002ad83620003cc60201b60201c565b81600b8190555080601360006101000a81548173ffffffffffffffffffffffffffffffffffffffff021916908373ffffffffffffffffffffffffffffffffffffffff1602179055505050506200095f565b600033905090565b6000600a60009054906101000a900473ffffffffffffffffffffffffffffffffffffffff16905081600a60006101000a81548173ffffffffffffffffffffffffffffffffffffffff021916908373ffffffffffffffffffffffffffffffffffffffff1602179055508173ffffffffffffffffffffffffffffffffffffffff168173ffffffffffffffffffffffffffffffffffffffff167f8be0079c531659141344cd1fd0a4f28419497f9722a3daafe3b4186f6b6457e060405160405180910390a35050565b620003dc620002fe60201b60201c565b73ffffffffffffffffffffffffffffffffffffffff16620004026200047760201b60201c565b73ffffffffffffffffffffffffffffffffffffffff16146200045b576040517f08c379a0000000000000000000000000000000000000000000000000000000008152600401620004529062000789565b60405180910390fd5b806014908051906020019062000473929190620004a1565b5050565b6000600a60009054906101000a900473ffffffffffffffffffffffffffffffffffffffff16905090565b828054620004af9062000897565b90600052602060002090601f016020900481019282620004d357600085556200051f565b82601f10620004ee57805160ff19168380011785556200051f565b828001600101855582156200051f579182015b828111156200051e57825182559160200191906001019062000501565b5b5090506200052e919062000619565b5090565b828054828255906000526020600020908101928215620005ae579160200282015b82811115620005ad5782518260006101000a81548173ffffffffffffffffffffffffffffffffffffffff021916908373ffffffffffffffffffffffffffffffffffffffff1602179055509160200191906001019062000553565b5b509050620005bd919062000619565b5090565b82805482825590600052602060002090810192821562000606579160200282015b8281111562000605578251829061ffff16905591602001919060010190620005e2565b5b50905062000615919062000619565b5090565b5b80821115620006345760008160009055506001016200061a565b5090565b60006200064f6200064984620007df565b620007ab565b9050828152602081018484840111156200066857600080fd5b6200067584828562000861565b509392505050565b6000815190506200068e816200092b565b92915050565b600082601f830112620006a657600080fd5b8151620006b884826020860162000638565b91505092915050565b600081519050620006d28162000945565b92915050565b600080600060608486031215620006ee57600080fd5b600084015167ffffffffffffffff8111156200070957600080fd5b620007178682870162000694565b93505060206200072a86828701620006c1565b92505060406200073d868287016200067d565b9150509250925092565b60006200075660208362000812565b91507f4f776e61626c653a2063616c6c6572206973206e6f7420746865206f776e65726000830152602082019050919050565b60006020820190508181036000830152620007a48162000747565b9050919050565b6000604051905081810181811067ffffffffffffffff82111715620007d557620007d4620008fc565b5b8060405250919050565b600067ffffffffffffffff821115620007fd57620007fc620008fc565b5b601f19601f8301169050602081019050919050565b600082825260208201905092915050565b6000620008308262000837565b9050919050565b600073ffffffffffffffffffffffffffffffffffffffff82169050919050565b6000819050919050565b60005b838110156200088157808201518184015260208101905062000864565b8381111562000891576000848401525b50505050565b60006002820490506001821680620008b057607f821691505b60208210811415620008c757620008c6620008cd565b5b50919050565b7f4e487b7100000000000000000000000000000000000000000000000000000000600052602260045260246000fd5b7f4e487b7100000000000000000000000000000000000000000000000000000000600052604160045260246000fd5b620009368162000823565b81146200094257600080fd5b50565b620009508162000857565b81146200095c57600080fd5b50565b614904806200096f6000396000f3fe6080604052600436106102045760003560e01c80636352211e11610118578063b88d4fde116100a0578063e77df0681161006f578063e77df06814610796578063e8a3d485146107b2578063e985e9c5146107dd578063edec5f271461081a578063f2fde38b1461084357610204565b8063b88d4fde146106c8578063ba4e5c49146106f1578063c66828621461072e578063c87b56dd1461075957610204565b806395d89b41116100e757806395d89b41146105f35780639c70b5121461061e578063a035b1fe14610649578063a22cb46514610674578063a6d23e101461069d57610204565b80636352211e1461053757806370a0823114610574578063715018a6146105b15780638da5cb5b146105c857610204565b80633af32abf1161019b578063453c23101161016a578063453c23101461045f5780634bf403b91461048a5780634f6ccce7146104a657806355f804b3146104e3578063564b28a01461050c57610204565b80633af32abf146103935780633c952764146103d057806342842e0e146103f9578063438b63001461042257610204565b8063095ea7b3116101d7578063095ea7b3146102d957806318160ddd1461030257806323b872dd1461032d5780632f745c591461035657610204565b806301ffc9a71461020957806306fdde0314610246578063076736a214610271578063081812fc1461029c575b600080fd5b34801561021557600080fd5b50610230600480360381019061022b919061342b565b61086c565b60405161023d9190614055565b60405180910390f35b34801561025257600080fd5b5061025b6108e6565b6040516102689190614070565b60405180910390f35b34801561027d57600080fd5b50610286610978565b60405161029391906143b2565b60405180910390f35b3480156102a857600080fd5b506102c360048036038101906102be91906134be565b61097e565b6040516102d09190613fb1565b60405180910390f35b3480156102e557600080fd5b5061030060048036038101906102fb9190613381565b610a03565b005b34801561030e57600080fd5b50610317610b1b565b60405161032491906143b2565b60405180910390f35b34801561033957600080fd5b50610354600480360381019061034f919061327b565b610b28565b005b34801561036257600080fd5b5061037d60048036038101906103789190613381565b610b88565b60405161038a91906143b2565b60405180910390f35b34801561039f57600080fd5b506103ba60048036038101906103b59190613216565b610c2d565b6040516103c79190614055565b60405180910390f35b3480156103dc57600080fd5b506103f760048036038101906103f29190613402565b610d02565b005b34801561040557600080fd5b50610420600480360381019061041b919061327b565b610d9b565b005b34801561042e57600080fd5b5061044960048036038101906104449190613216565b610dbb565b6040516104569190614033565b60405180910390f35b34801561046b57600080fd5b50610474610eb5565b60405161048191906143b2565b60405180910390f35b6104a4600480360381019061049f91906134e7565b610ebb565b005b3480156104b257600080fd5b506104cd60048036038101906104c891906134be565b611050565b6040516104da91906143b2565b60405180910390f35b3480156104ef57600080fd5b5061050a6004803603810190610505919061347d565b6110e7565b005b34801561051857600080fd5b5061052161117d565b60405161052e91906143b2565b60405180910390f35b34801561054357600080fd5b5061055e600480360381019061055991906134be565b611183565b60405161056b9190613fb1565b60405180910390f35b34801561058057600080fd5b5061059b60048036038101906105969190613216565b611235565b6040516105a891906143b2565b60405180910390f35b3480156105bd57600080fd5b506105c66112ed565b005b3480156105d457600080fd5b506105dd611375565b6040516105ea9190613fb1565b60405180910390f35b3480156105ff57600080fd5b5061060861139f565b6040516106159190614070565b60405180910390f35b34801561062a57600080fd5b50610633611431565b6040516106409190614055565b60405180910390f35b34801561065557600080fd5b5061065e611444565b60405161066b91906143b2565b60405180910390f35b34801561068057600080fd5b5061069b60048036038101906106969190613345565b611450565b005b3480156106a957600080fd5b506106b26115d1565b6040516106bf9190613fcc565b60405180910390f35b3480156106d457600080fd5b506106ef60048036038101906106ea91906132ca565b6115f7565b005b3480156106fd57600080fd5b50610718600480360381019061071391906134be565b611659565b6040516107259190613fb1565b60405180910390f35b34801561073a57600080fd5b50610743611698565b6040516107509190614070565b60405180910390f35b34801561076557600080fd5b50610780600480360381019061077b91906134be565b611726565b60405161078d9190614070565b60405180910390f35b6107b060048036038101906107ab91906134be565b6117dc565b005b3480156107be57600080fd5b506107c7611b37565b6040516107d49190614070565b60405180910390f35b3480156107e957600080fd5b5061080460048036038101906107ff919061323f565b611b57565b6040516108119190614055565b60405180910390f35b34801561082657600080fd5b50610841600480360381019061083c91906133bd565b611beb565b005b34801561084f57600080fd5b5061086a60048036038101906108659190613216565b611c8b565b005b60007f780e9d63000000000000000000000000000000000000000000000000000000007bffffffffffffffffffffffffffffffffffffffffffffffffffffffff1916827bffffffffffffffffffffffffffffffffffffffffffffffffffffffff191614806108df57506108de82611d83565b5b9050919050565b6060600080546108f5906146cc565b80601f0160208091040260200160405190810160405280929190818152602001828054610921906146cc565b801561096e5780601f106109435761010080835404028352916020019161096e565b820191906000526020600020905b81548152906001019060200180831161095157829003601f168201915b5050505050905090565b600c5481565b600061098982611e65565b6109c8576040517f08c379a00000000000000000000000000000000000000000000000000000000081526004016109bf90614232565b60405180910390fd5b6004600083815260200190815260200160002060009054906101000a900473ffffffffffffffffffffffffffffffffffffffff169050919050565b6000610a0e82611183565b90508073ffffffffffffffffffffffffffffffffffffffff168373ffffffffffffffffffffffffffffffffffffffff161415610a7f576040517f08c379a0000000000000000000000000000000000000000000000000000000008152600401610a7690614332565b60405180910390fd5b8073ffffffffffffffffffffffffffffffffffffffff16610a9e611ed1565b73ffffffffffffffffffffffffffffffffffffffff161480610acd5750610acc81610ac7611ed1565b611b57565b5b610b0c576040517f08c379a0000000000000000000000000000000000000000000000000000000008152600401610b03906141b2565b60405180910390fd5b610b168383611ed9565b505050565b6000600880549050905090565b610b39610b33611ed1565b82611f92565b610b78576040517f08c379a0000000000000000000000000000000000000000000000000000000008152600401610b6f90614372565b60405180910390fd5b610b83838383612070565b505050565b6000610b9383611235565b8210610bd4576040517f08c379a0000000000000000000000000000000000000000000000000000000008152600401610bcb90614092565b60405180910390fd5b600660008473ffffffffffffffffffffffffffffffffffffffff1673ffffffffffffffffffffffffffffffffffffffff168152602001908152602001600020600083815260200190815260200160002054905092915050565b600080600090505b601280549050811015610cf7578273ffffffffffffffffffffffffffffffffffffffff1660128281548110610c93577f4e487b7100000000000000000000000000000000000000000000000000000000600052603260045260246000fd5b9060005260206000200160009054906101000a900473ffffffffffffffffffffffffffffffffffffffff1673ffffffffffffffffffffffffffffffffffffffff161415610ce4576001915050610cfd565b8080610cef906146fe565b915050610c35565b50600090505b919050565b610d0a611ed1565b73ffffffffffffffffffffffffffffffffffffffff16610d28611375565b73ffffffffffffffffffffffffffffffffffffffff1614610d7e576040517f08c379a0000000000000000000000000000000000000000000000000000000008152600401610d7590614272565b60405180910390fd5b80601160006101000a81548160ff02191690831515021790555050565b610db6838383604051806020016040528060008152506115f7565b505050565b60606000610dc883611235565b905060008167ffffffffffffffff811115610e0c577f4e487b7100000000000000000000000000000000000000000000000000000000600052604160045260246000fd5b604051908082528060200260200182016040528015610e3a5781602001602082028036833780820191505090505b50905060005b82811015610eaa57610e528582610b88565b828281518110610e8b577f4e487b7100000000000000000000000000000000000000000000000000000000600052603260045260246000fd5b6020026020010181815250508080610ea2906146fe565b915050610e40565b508092505050919050565b600d5481565b600b54610ec6610b1b565b10610f06576040517f08c379a0000000000000000000000000000000000000000000000000000000008152600401610efd90614112565b60405180910390fd5b610f0e611ed1565b73ffffffffffffffffffffffffffffffffffffffff16610f2c611375565b73ffffffffffffffffffffffffffffffffffffffff1614610f82576040517f08c379a0000000000000000000000000000000000000000000000000000000008152600401610f7990614272565b60405180910390fd5b60008211610fc5576040517f08c379a0000000000000000000000000000000000000000000000000000000008152600401610fbc90614352565b60405180910390fd5b600b5482610fd1610b1b565b610fdb91906144ef565b111561101c576040517f08c379a000000000000000000000000000000000000000000000000000000000815260040161101390614312565b60405180910390fd5b60005b8281101561104b5761103882611033610b1b565b6122cc565b8080611043906146fe565b91505061101f565b505050565b600061105a610b1b565b821061109b576040517f08c379a000000000000000000000000000000000000000000000000000000000815260040161109290614392565b60405180910390fd5b600882815481106110d5577f4e487b7100000000000000000000000000000000000000000000000000000000600052603260045260246000fd5b90600052602060002001549050919050565b6110ef611ed1565b73ffffffffffffffffffffffffffffffffffffffff1661110d611375565b73ffffffffffffffffffffffffffffffffffffffff1614611163576040517f08c379a000000000000000000000000000000000000000000000000000000000815260040161115a90614272565b60405180910390fd5b8060149080519060200190611179929190612f2f565b5050565b600b5481565b6000806002600084815260200190815260200160002060009054906101000a900473ffffffffffffffffffffffffffffffffffffffff169050600073ffffffffffffffffffffffffffffffffffffffff168173ffffffffffffffffffffffffffffffffffffffff16141561122c576040517f08c379a0000000000000000000000000000000000000000000000000000000008152600401611223906141f2565b60405180910390fd5b80915050919050565b60008073ffffffffffffffffffffffffffffffffffffffff168273ffffffffffffffffffffffffffffffffffffffff1614156112a6576040517f08c379a000000000000000000000000000000000000000000000000000000000815260040161129d906141d2565b60405180910390fd5b600360008373ffffffffffffffffffffffffffffffffffffffff1673ffffffffffffffffffffffffffffffffffffffff168152602001908152602001600020549050919050565b6112f5611ed1565b73ffffffffffffffffffffffffffffffffffffffff16611313611375565b73ffffffffffffffffffffffffffffffffffffffff1614611369576040517f08c379a000000000000000000000000000000000000000000000000000000000815260040161136090614272565b60405180910390fd5b61137360006122ea565b565b6000600a60009054906101000a900473ffffffffffffffffffffffffffffffffffffffff16905090565b6060600180546113ae906146cc565b80601f01602080910402602001604051908101604052809291908181526020018280546113da906146cc565b80156114275780601f106113fc57610100808354040283529160200191611427565b820191906000526020600020905b81548152906001019060200180831161140a57829003601f168201915b5050505050905090565b601160009054906101000a900460ff1681565b67016345785d8a000081565b611458611ed1565b73ffffffffffffffffffffffffffffffffffffffff168273ffffffffffffffffffffffffffffffffffffffff1614156114c6576040517f08c379a00000000000000000000000000000000000000000000000000000000081526004016114bd90614152565b60405180910390fd5b80600560006114d3611ed1565b73ffffffffffffffffffffffffffffffffffffffff1673ffffffffffffffffffffffffffffffffffffffff16815260200190815260200160002060008473ffffffffffffffffffffffffffffffffffffffff1673ffffffffffffffffffffffffffffffffffffffff16815260200190815260200160002060006101000a81548160ff0219169083151502179055508173ffffffffffffffffffffffffffffffffffffffff16611580611ed1565b73ffffffffffffffffffffffffffffffffffffffff167f17307eab39ab6107e8899845ad3d59bd9653f200f220920489ca2b5937696c31836040516115c59190614055565b60405180910390a35050565b601360009054906101000a900473ffffffffffffffffffffffffffffffffffffffff1681565b611608611602611ed1565b83611f92565b611647576040517f08c379a000000000000000000000000000000000000000000000000000000000815260040161163e90614372565b60405180910390fd5b611653848484846123b0565b50505050565b6012818154811061166957600080fd5b906000526020600020016000915054906101000a900473ffffffffffffffffffffffffffffffffffffffff1681565b600e80546116a5906146cc565b80601f01602080910402602001604051908101604052809291908181526020018280546116d1906146cc565b801561171e5780601f106116f35761010080835404028352916020019161171e565b820191906000526020600020905b81548152906001019060200180831161170157829003601f168201915b505050505081565b606061173182611e65565b611770576040517f08c379a0000000000000000000000000000000000000000000000000000000008152600401611767906142b2565b60405180910390fd5b600061177a61240c565b9050600081511161179a57604051806020016040528060008152506117d4565b806117b06001856117ab91906144ef565b61249e565b600e6040516020016117c493929190613f80565b6040516020818303038152906040525b915050919050565b600b546117e7610b1b565b10611827576040517f08c379a000000000000000000000000000000000000000000000000000000000815260040161181e90614112565b60405180910390fd5b6000811161186a576040517f08c379a000000000000000000000000000000000000000000000000000000000815260040161186190614352565b60405180910390fd5b600c548111156118af576040517f08c379a00000000000000000000000000000000000000000000000000000000081526004016118a690614252565b60405180910390fd5b600d546118bb33611235565b11156118fc576040517f08c379a00000000000000000000000000000000000000000000000000000000081526004016118f390614252565b60405180910390fd5b600b5481611908610b1b565b61191291906144ef565b1115611953576040517f08c379a000000000000000000000000000000000000000000000000000000000815260040161194a90614312565b60405180910390fd5b601080549050600f805490501461199f576040517f08c379a0000000000000000000000000000000000000000000000000000000008152600401611996906142d2565b60405180910390fd5b60006119bc8267016345785d8a000061264b90919063ffffffff16565b90506119c6611375565b73ffffffffffffffffffffffffffffffffffffffff163373ffffffffffffffffffffffffffffffffffffffff1614611a9a57601160009054906101000a900460ff1615611a5657611a1633610c2d565b611a55576040517f08c379a0000000000000000000000000000000000000000000000000000000008152600401611a4c90614192565b60405180910390fd5b5b80341015611a99576040517f08c379a0000000000000000000000000000000000000000000000000000000008152600401611a90906142f2565b60405180910390fd5b5b60005b82811015611ac957611ab633611ab1610b1b565b6122cc565b8080611ac1906146fe565b915050611a9d565b50601360009054906101000a900473ffffffffffffffffffffffffffffffffffffffff1673ffffffffffffffffffffffffffffffffffffffff166108fc829081150290604051600060405180830381858888f19350505050158015611b32573d6000803e3d6000fd5b505050565b60606040518060600160405280602d81526020016148a2602d9139905090565b6000600560008473ffffffffffffffffffffffffffffffffffffffff1673ffffffffffffffffffffffffffffffffffffffff16815260200190815260200160002060008373ffffffffffffffffffffffffffffffffffffffff1673ffffffffffffffffffffffffffffffffffffffff16815260200190815260200160002060009054906101000a900460ff16905092915050565b611bf3611ed1565b73ffffffffffffffffffffffffffffffffffffffff16611c11611375565b73ffffffffffffffffffffffffffffffffffffffff1614611c67576040517f08c379a0000000000000000000000000000000000000000000000000000000008152600401611c5e90614272565b60405180910390fd5b60126000611c759190612fb5565b818160129190611c86929190612fd6565b505050565b611c93611ed1565b73ffffffffffffffffffffffffffffffffffffffff16611cb1611375565b73ffffffffffffffffffffffffffffffffffffffff1614611d07576040517f08c379a0000000000000000000000000000000000000000000000000000000008152600401611cfe90614272565b60405180910390fd5b600073ffffffffffffffffffffffffffffffffffffffff168173ffffffffffffffffffffffffffffffffffffffff161415611d77576040517f08c379a0000000000000000000000000000000000000000000000000000000008152600401611d6e906140d2565b60405180910390fd5b611d80816122ea565b50565b60007f80ac58cd000000000000000000000000000000000000000000000000000000007bffffffffffffffffffffffffffffffffffffffffffffffffffffffff1916827bffffffffffffffffffffffffffffffffffffffffffffffffffffffff19161480611e4e57507f5b5e139f000000000000000000000000000000000000000000000000000000007bffffffffffffffffffffffffffffffffffffffffffffffffffffffff1916827bffffffffffffffffffffffffffffffffffffffffffffffffffffffff1916145b80611e5e5750611e5d82612661565b5b9050919050565b60008073ffffffffffffffffffffffffffffffffffffffff166002600084815260200190815260200160002060009054906101000a900473ffffffffffffffffffffffffffffffffffffffff1673ffffffffffffffffffffffffffffffffffffffff1614159050919050565b600033905090565b816004600083815260200190815260200160002060006101000a81548173ffffffffffffffffffffffffffffffffffffffff021916908373ffffffffffffffffffffffffffffffffffffffff160217905550808273ffffffffffffffffffffffffffffffffffffffff16611f4c83611183565b73ffffffffffffffffffffffffffffffffffffffff167f8c5be1e5ebec7d5bd14f71427d1e84f3dd0314c0f7b2291e5b200ac8c7c3b92560405160405180910390a45050565b6000611f9d82611e65565b611fdc576040517f08c379a0000000000000000000000000000000000000000000000000000000008152600401611fd390614172565b60405180910390fd5b6000611fe783611183565b90508073ffffffffffffffffffffffffffffffffffffffff168473ffffffffffffffffffffffffffffffffffffffff16148061205657508373ffffffffffffffffffffffffffffffffffffffff1661203e8461097e565b73ffffffffffffffffffffffffffffffffffffffff16145b8061206757506120668185611b57565b5b91505092915050565b8273ffffffffffffffffffffffffffffffffffffffff1661209082611183565b73ffffffffffffffffffffffffffffffffffffffff16146120e6576040517f08c379a00000000000000000000000000000000000000000000000000000000081526004016120dd90614292565b60405180910390fd5b600073ffffffffffffffffffffffffffffffffffffffff168273ffffffffffffffffffffffffffffffffffffffff161415612156576040517f08c379a000000000000000000000000000000000000000000000000000000000815260040161214d90614132565b60405180910390fd5b6121618383836126cb565b61216c600082611ed9565b6001600360008573ffffffffffffffffffffffffffffffffffffffff1673ffffffffffffffffffffffffffffffffffffffff16815260200190815260200160002060008282546121bc91906145d0565b925050819055506001600360008473ffffffffffffffffffffffffffffffffffffffff1673ffffffffffffffffffffffffffffffffffffffff168152602001908152602001600020600082825461221391906144ef565b92505081905550816002600083815260200190815260200160002060006101000a81548173ffffffffffffffffffffffffffffffffffffffff021916908373ffffffffffffffffffffffffffffffffffffffff160217905550808273ffffffffffffffffffffffffffffffffffffffff168473ffffffffffffffffffffffffffffffffffffffff167fddf252ad1be2c89b69c2b068fc378daa952ba7f163c4a11628f55a4df523b3ef60405160405180910390a4505050565b6122e68282604051806020016040528060008152506127df565b5050565b6000600a60009054906101000a900473ffffffffffffffffffffffffffffffffffffffff16905081600a60006101000a81548173ffffffffffffffffffffffffffffffffffffffff021916908373ffffffffffffffffffffffffffffffffffffffff1602179055508173ffffffffffffffffffffffffffffffffffffffff168173ffffffffffffffffffffffffffffffffffffffff167f8be0079c531659141344cd1fd0a4f28419497f9722a3daafe3b4186f6b6457e060405160405180910390a35050565b6123bb848484612070565b6123c78484848461283a565b612406576040517f08c379a00000000000000000000000000000000000000000000000000000000081526004016123fd906140b2565b60405180910390fd5b50505050565b60606014805461241b906146cc565b80601f0160208091040260200160405190810160405280929190818152602001828054612447906146cc565b80156124945780601f1061246957610100808354040283529160200191612494565b820191906000526020600020905b81548152906001019060200180831161247757829003601f168201915b5050505050905090565b606060008214156124e6576040518060400160405280600181526020017f30000000000000000000000000000000000000000000000000000000000000008152509050612646565b600082905060005b60008214612518578080612501906146fe565b915050600a826125119190614545565b91506124ee565b60008167ffffffffffffffff81111561255a577f4e487b7100000000000000000000000000000000000000000000000000000000600052604160045260246000fd5b6040519080825280601f01601f19166020018201604052801561258c5781602001600182028036833780820191505090505b5090505b6000851461263f576001826125a591906145d0565b9150600a856125b49190614747565b60306125c091906144ef565b60f81b8183815181106125fc577f4e487b7100000000000000000000000000000000000000000000000000000000600052603260045260246000fd5b60200101907effffffffffffffffffffffffffffffffffffffffffffffffffffffffffffff1916908160001a905350600a856126389190614545565b9450612590565b8093505050505b919050565b600081836126599190614576565b905092915050565b60007f01ffc9a7000000000000000000000000000000000000000000000000000000007bffffffffffffffffffffffffffffffffffffffffffffffffffffffff1916827bffffffffffffffffffffffffffffffffffffffffffffffffffffffff1916149050919050565b6126d68383836129d1565b600073ffffffffffffffffffffffffffffffffffffffff168373ffffffffffffffffffffffffffffffffffffffff16141561271957612714816129d6565b612758565b8173ffffffffffffffffffffffffffffffffffffffff168373ffffffffffffffffffffffffffffffffffffffff1614612757576127568382612a1f565b5b5b600073ffffffffffffffffffffffffffffffffffffffff168273ffffffffffffffffffffffffffffffffffffffff16141561279b5761279681612b8c565b6127da565b8273ffffffffffffffffffffffffffffffffffffffff168273ffffffffffffffffffffffffffffffffffffffff16146127d9576127d88282612ccf565b5b5b505050565b6127e98383612d4e565b6127f6600084848461283a565b612835576040517f08c379a000000000000000000000000000000000000000000000000000000000815260040161282c906140b2565b60405180910390fd5b505050565b600061285b8473ffffffffffffffffffffffffffffffffffffffff16612f1c565b156129c4578373ffffffffffffffffffffffffffffffffffffffff1663150b7a02612884611ed1565b8786866040518563ffffffff1660e01b81526004016128a69493929190613fe7565b602060405180830381600087803b1580156128c057600080fd5b505af19250505080156128f157506040513d601f19601f820116820180604052508101906128ee9190613454565b60015b612974573d8060008114612921576040519150601f19603f3d011682016040523d82523d6000602084013e612926565b606091505b5060008151141561296c576040517f08c379a0000000000000000000000000000000000000000000000000000000008152600401612963906140b2565b60405180910390fd5b805181602001fd5b63150b7a0260e01b7bffffffffffffffffffffffffffffffffffffffffffffffffffffffff1916817bffffffffffffffffffffffffffffffffffffffffffffffffffffffff1916149150506129c9565b600190505b949350505050565b505050565b6008805490506009600083815260200190815260200160002081905550600881908060018154018082558091505060019003906000526020600020016000909190919091505550565b60006001612a2c84611235565b612a3691906145d0565b9050600060076000848152602001908152602001600020549050818114612b1b576000600660008673ffffffffffffffffffffffffffffffffffffffff1673ffffffffffffffffffffffffffffffffffffffff168152602001908152602001600020600084815260200190815260200160002054905080600660008773ffffffffffffffffffffffffffffffffffffffff1673ffffffffffffffffffffffffffffffffffffffff168152602001908152602001600020600084815260200190815260200160002081905550816007600083815260200190815260200160002081905550505b6007600084815260200190815260200160002060009055600660008573ffffffffffffffffffffffffffffffffffffffff1673ffffffffffffffffffffffffffffffffffffffff16815260200190815260200160002060008381526020019081526020016000206000905550505050565b60006001600880549050612ba091906145d0565b9050600060096000848152602001908152602001600020549050600060088381548110612bf6577f4e487b7100000000000000000000000000000000000000000000000000000000600052603260045260246000fd5b906000526020600020015490508060088381548110612c3e577f4e487b7100000000000000000000000000000000000000000000000000000000600052603260045260246000fd5b906000526020600020018190555081600960008381526020019081526020016000208190555060096000858152602001908152602001600020600090556008805480612cb3577f4e487b7100000000000000000000000000000000000000000000000000000000600052603160045260246000fd5b6001900381819060005260206000200160009055905550505050565b6000612cda83611235565b905081600660008573ffffffffffffffffffffffffffffffffffffffff1673ffffffffffffffffffffffffffffffffffffffff168152602001908152602001600020600083815260200190815260200160002081905550806007600084815260200190815260200160002081905550505050565b600073ffffffffffffffffffffffffffffffffffffffff168273ffffffffffffffffffffffffffffffffffffffff161415612dbe576040517f08c379a0000000000000000000000000000000000000000000000000000000008152600401612db590614212565b60405180910390fd5b612dc781611e65565b15612e07576040517f08c379a0000000000000000000000000000000000000000000000000000000008152600401612dfe906140f2565b60405180910390fd5b612e13600083836126cb565b6001600360008473ffffffffffffffffffffffffffffffffffffffff1673ffffffffffffffffffffffffffffffffffffffff1681526020019081526020016000206000828254612e6391906144ef565b92505081905550816002600083815260200190815260200160002060006101000a81548173ffffffffffffffffffffffffffffffffffffffff021916908373ffffffffffffffffffffffffffffffffffffffff160217905550808273ffffffffffffffffffffffffffffffffffffffff16600073ffffffffffffffffffffffffffffffffffffffff167fddf252ad1be2c89b69c2b068fc378daa952ba7f163c4a11628f55a4df523b3ef60405160405180910390a45050565b600080823b905060008111915050919050565b828054612f3b906146cc565b90600052602060002090601f016020900481019282612f5d5760008555612fa4565b82601f10612f7657805160ff1916838001178555612fa4565b82800160010185558215612fa4579182015b82811115612fa3578251825591602001919060010190612f88565b5b509050612fb19190613076565b5090565b5080546000825590600052602060002090810190612fd39190613076565b50565b828054828255906000526020600020908101928215613065579160200282015b8281111561306457823573ffffffffffffffffffffffffffffffffffffffff168260006101000a81548173ffffffffffffffffffffffffffffffffffffffff021916908373ffffffffffffffffffffffffffffffffffffffff16021790555091602001919060010190612ff6565b5b5090506130729190613076565b5090565b5b8082111561308f576000816000905550600101613077565b5090565b60006130a66130a1846143fe565b6143cd565b9050828152602081018484840111156130be57600080fd5b6130c984828561468a565b509392505050565b60006130e46130df8461442e565b6143cd565b9050828152602081018484840111156130fc57600080fd5b61310784828561468a565b509392505050565b60008135905061311e81614845565b92915050565b60008083601f84011261313657600080fd5b8235905067ffffffffffffffff81111561314f57600080fd5b60208301915083602082028301111561316757600080fd5b9250929050565b60008135905061317d8161485c565b92915050565b60008135905061319281614873565b92915050565b6000815190506131a781614873565b92915050565b600082601f8301126131be57600080fd5b81356131ce848260208601613093565b91505092915050565b600082601f8301126131e857600080fd5b81356131f88482602086016130d1565b91505092915050565b6000813590506132108161488a565b92915050565b60006020828403121561322857600080fd5b60006132368482850161310f565b91505092915050565b6000806040838503121561325257600080fd5b60006132608582860161310f565b92505060206132718582860161310f565b9150509250929050565b60008060006060848603121561329057600080fd5b600061329e8682870161310f565b93505060206132af8682870161310f565b92505060406132c086828701613201565b9150509250925092565b600080600080608085870312156132e057600080fd5b60006132ee8782880161310f565b94505060206132ff8782880161310f565b935050604061331087828801613201565b925050606085013567ffffffffffffffff81111561332d57600080fd5b613339878288016131ad565b91505092959194509250565b6000806040838503121561335857600080fd5b60006133668582860161310f565b92505060206133778582860161316e565b9150509250929050565b6000806040838503121561339457600080fd5b60006133a28582860161310f565b92505060206133b385828601613201565b9150509250929050565b600080602083850312156133d057600080fd5b600083013567ffffffffffffffff8111156133ea57600080fd5b6133f685828601613124565b92509250509250929050565b60006020828403121561341457600080fd5b60006134228482850161316e565b91505092915050565b60006020828403121561343d57600080fd5b600061344b84828501613183565b91505092915050565b60006020828403121561346657600080fd5b600061347484828501613198565b91505092915050565b60006020828403121561348f57600080fd5b600082013567ffffffffffffffff8111156134a957600080fd5b6134b5848285016131d7565b91505092915050565b6000602082840312156134d057600080fd5b60006134de84828501613201565b91505092915050565b600080604083850312156134fa57600080fd5b600061350885828601613201565b92505060206135198582860161310f565b9150509250929050565b600061352f8383613f62565b60208301905092915050565b61354481614616565b82525050565b61355381614604565b82525050565b600061356482614483565b61356e81856144b1565b93506135798361445e565b8060005b838110156135aa5781516135918882613523565b975061359c836144a4565b92505060018101905061357d565b5085935050505092915050565b6135c081614628565b82525050565b60006135d18261448e565b6135db81856144c2565b93506135eb818560208601614699565b6135f481614834565b840191505092915050565b600061360a82614499565b61361481856144d3565b9350613624818560208601614699565b61362d81614834565b840191505092915050565b600061364382614499565b61364d81856144e4565b935061365d818560208601614699565b80840191505092915050565b60008154613676816146cc565b61368081866144e4565b9450600182166000811461369b57600181146136ac576136df565b60ff198316865281860193506136df565b6136b58561446e565b60005b838110156136d7578154818901526001820191506020810190506136b8565b838801955050505b50505092915050565b60006136f5602b836144d3565b91507f455243373231456e756d657261626c653a206f776e657220696e646578206f7560008301527f74206f6620626f756e64730000000000000000000000000000000000000000006020830152604082019050919050565b600061375b6032836144d3565b91507f4552433732313a207472616e7366657220746f206e6f6e20455243373231526560008301527f63656976657220696d706c656d656e74657200000000000000000000000000006020830152604082019050919050565b60006137c16026836144d3565b91507f4f776e61626c653a206e6577206f776e657220697320746865207a65726f206160008301527f64647265737300000000000000000000000000000000000000000000000000006020830152604082019050919050565b6000613827601c836144d3565b91507f4552433732313a20746f6b656e20616c7265616479206d696e746564000000006000830152602082019050919050565b6000613867600e836144d3565b91507f53616c652068617320656e6465640000000000000000000000000000000000006000830152602082019050919050565b60006138a76024836144d3565b91507f4552433732313a207472616e7366657220746f20746865207a65726f2061646460008301527f72657373000000000000000000000000000000000000000000000000000000006020830152604082019050919050565b600061390d6019836144d3565b91507f4552433732313a20617070726f766520746f2063616c6c6572000000000000006000830152602082019050919050565b600061394d602c836144d3565b91507f4552433732313a206f70657261746f7220717565727920666f72206e6f6e657860008301527f697374656e7420746f6b656e00000000000000000000000000000000000000006020830152604082019050919050565b60006139b36017836144d3565b91507f55736572206973206e6f742077686974656c69737465640000000000000000006000830152602082019050919050565b60006139f36038836144d3565b91507f4552433732313a20617070726f76652063616c6c6572206973206e6f74206f7760008301527f6e6572206e6f7220617070726f76656420666f7220616c6c00000000000000006020830152604082019050919050565b6000613a59602a836144d3565b91507f4552433732313a2062616c616e636520717565727920666f7220746865207a6560008301527f726f2061646472657373000000000000000000000000000000000000000000006020830152604082019050919050565b6000613abf6029836144d3565b91507f4552433732313a206f776e657220717565727920666f72206e6f6e657869737460008301527f656e7420746f6b656e00000000000000000000000000000000000000000000006020830152604082019050919050565b6000613b256020836144d3565b91507f4552433732313a206d696e7420746f20746865207a65726f20616464726573736000830152602082019050919050565b6000613b65602c836144d3565b91507f4552433732313a20617070726f76656420717565727920666f72206e6f6e657860008301527f697374656e7420746f6b656e00000000000000000000000000000000000000006020830152604082019050919050565b6000613bcb6009836144d3565b91507f45786365656473203500000000000000000000000000000000000000000000006000830152602082019050919050565b6000613c0b6020836144d3565b91507f4f776e61626c653a2063616c6c6572206973206e6f7420746865206f776e65726000830152602082019050919050565b6000613c4b6029836144d3565b91507f4552433732313a207472616e73666572206f6620746f6b656e2074686174206960008301527f73206e6f74206f776e00000000000000000000000000000000000000000000006020830152604082019050919050565b6000613cb1602f836144d3565b91507f4552433732314d657461646174613a2055524920717565727920666f72206e6f60008301527f6e6578697374656e7420746f6b656e00000000000000000000000000000000006020830152604082019050919050565b6000613d17603c836144d3565b91507f5061796d656e7453706c69747465723a20616472657373657320616e6420736860008301527f6172657320617265206e6f74207468652073616d65206c656e677468000000006020830152604082019050919050565b6000613d7d6011836144d3565b91507f56616c75652062656c6f772070726963650000000000000000000000000000006000830152602082019050919050565b6000613dbd6015836144d3565b91507f4e6f7420656e6f75676820746f6b656e206c65667400000000000000000000006000830152602082019050919050565b6000613dfd6021836144d3565b91507f4552433732313a20617070726f76616c20746f2063757272656e74206f776e6560008301527f72000000000000000000000000000000000000000000000000000000000000006020830152604082019050919050565b6000613e63601b836144d3565b91507f596f752063616e2774206d696e74203020426f78696e67426f797a00000000006000830152602082019050919050565b6000613ea36031836144d3565b91507f4552433732313a207472616e736665722063616c6c6572206973206e6f74206f60008301527f776e6572206e6f7220617070726f7665640000000000000000000000000000006020830152604082019050919050565b6000613f09602c836144d3565b91507f455243373231456e756d657261626c653a20676c6f62616c20696e646578206f60008301527f7574206f6620626f756e647300000000000000000000000000000000000000006020830152604082019050919050565b613f6b81614680565b82525050565b613f7a81614680565b82525050565b6000613f8c8286613638565b9150613f988285613638565b9150613fa48284613669565b9150819050949350505050565b6000602082019050613fc6600083018461354a565b92915050565b6000602082019050613fe1600083018461353b565b92915050565b6000608082019050613ffc600083018761354a565b614009602083018661354a565b6140166040830185613f71565b818103606083015261402881846135c6565b905095945050505050565b6000602082019050818103600083015261404d8184613559565b905092915050565b600060208201905061406a60008301846135b7565b92915050565b6000602082019050818103600083015261408a81846135ff565b905092915050565b600060208201905081810360008301526140ab816136e8565b9050919050565b600060208201905081810360008301526140cb8161374e565b9050919050565b600060208201905081810360008301526140eb816137b4565b9050919050565b6000602082019050818103600083015261410b8161381a565b9050919050565b6000602082019050818103600083015261412b8161385a565b9050919050565b6000602082019050818103600083015261414b8161389a565b9050919050565b6000602082019050818103600083015261416b81613900565b9050919050565b6000602082019050818103600083015261418b81613940565b9050919050565b600060208201905081810360008301526141ab816139a6565b9050919050565b600060208201905081810360008301526141cb816139e6565b9050919050565b600060208201905081810360008301526141eb81613a4c565b9050919050565b6000602082019050818103600083015261420b81613ab2565b9050919050565b6000602082019050818103600083015261422b81613b18565b9050919050565b6000602082019050818103600083015261424b81613b58565b9050919050565b6000602082019050818103600083015261426b81613bbe565b9050919050565b6000602082019050818103600083015261428b81613bfe565b9050919050565b600060208201905081810360008301526142ab81613c3e565b9050919050565b600060208201905081810360008301526142cb81613ca4565b9050919050565b600060208201905081810360008301526142eb81613d0a565b9050919050565b6000602082019050818103600083015261430b81613d70565b9050919050565b6000602082019050818103600083015261432b81613db0565b9050919050565b6000602082019050818103600083015261434b81613df0565b9050919050565b6000602082019050818103600083015261436b81613e56565b9050919050565b6000602082019050818103600083015261438b81613e96565b9050919050565b600060208201905081810360008301526143ab81613efc565b9050919050565b60006020820190506143c76000830184613f71565b92915050565b6000604051905081810181811067ffffffffffffffff821117156143f4576143f3614805565b5b8060405250919050565b600067ffffffffffffffff82111561441957614418614805565b5b601f19601f8301169050602081019050919050565b600067ffffffffffffffff82111561444957614448614805565b5b601f19601f8301169050602081019050919050565b6000819050602082019050919050565b60008190508160005260206000209050919050565b600081519050919050565b600081519050919050565b600081519050919050565b6000602082019050919050565b600082825260208201905092915050565b600082825260208201905092915050565b600082825260208201905092915050565b600081905092915050565b60006144fa82614680565b915061450583614680565b9250827fffffffffffffffffffffffffffffffffffffffffffffffffffffffffffffffff0382111561453a57614539614778565b5b828201905092915050565b600061455082614680565b915061455b83614680565b92508261456b5761456a6147a7565b5b828204905092915050565b600061458182614680565b915061458c83614680565b9250817fffffffffffffffffffffffffffffffffffffffffffffffffffffffffffffffff04831182151516156145c5576145c4614778565b5b828202905092915050565b60006145db82614680565b91506145e683614680565b9250828210156145f9576145f8614778565b5b828203905092915050565b600061460f82614660565b9050919050565b600061462182614660565b9050919050565b60008115159050919050565b60007fffffffff0000000000000000000000000000000000000000000000000000000082169050919050565b600073ffffffffffffffffffffffffffffffffffffffff82169050919050565b6000819050919050565b82818337600083830152505050565b60005b838110156146b757808201518184015260208101905061469c565b838111156146c6576000848401525b50505050565b600060028204905060018216806146e457607f821691505b602082108114156146f8576146f76147d6565b5b50919050565b600061470982614680565b91507fffffffffffffffffffffffffffffffffffffffffffffffffffffffffffffffff82141561473c5761473b614778565b5b600182019050919050565b600061475282614680565b915061475d83614680565b92508261476d5761476c6147a7565b5b828206905092915050565b7f4e487b7100000000000000000000000000000000000000000000000000000000600052601160045260246000fd5b7f4e487b7100000000000000000000000000000000000000000000000000000000600052601260045260246000fd5b7f4e487b7100000000000000000000000000000000000000000000000000000000600052602260045260246000fd5b7f4e487b7100000000000000000000000000000000000000000000000000000000600052604160045260246000fd5b6000601f19601f8301169050919050565b61484e81614604565b811461485957600080fd5b50565b61486581614628565b811461487057600080fd5b50565b61487c81614634565b811461488757600080fd5b50565b61489381614680565b811461489e57600080fd5b5056fe68747470733a2f2f7777772e626f78696e67626f797a2e636f6d2f636f6e74726163742d696e666f2e6a736f6ea26469706673582212207937a47d030cfce1066627fd36bde0271c77f7666c62154dc437e5f3148de30364736f6c63430008000033",
  "immutableReferences": {},
  "source": "// SPDX-License-Identifier: MIT\r\npragma solidity ^0.8.0;\r\n\r\nimport \"@openzeppelin/contracts/token/ERC721/extensions/ERC721Enumerable.sol\";\r\nimport \"@openzeppelin/contracts/access/Ownable.sol\";\r\nimport \"@openzeppelin/contracts/utils/math/SafeMath.sol\";\r\nimport \"@openzeppelin/contracts/utils/Strings.sol\";\r\nimport \"@openzeppelin/contracts/finance/PaymentSplitter.sol\";\r\n\r\n\r\ncontract BoxingBoyz is ERC721Enumerable, Ownable {\r\n    using SafeMath for uint256;\r\n    using Strings for uint256;\r\n\r\n    uint public availableToken = 10000;\r\n    uint256 public constant price = 0.1 ether;\r\n    uint256 public maxPurchaseSize = 5;\r\n    uint256 public maxPerWallet = 5;\r\n    string public baseExtension = \".json\";\r\n    address[] private addressList = [\r\n        0xBD836D554f431616B444a36673a4C4e05fca2110,\r\n        0x423A694Fe08c3F070f761Cc5B4D2A8731EbD8d56,\r\n        0xEB186Ef4Dc1A29730beb5ba49Bf129c3Ef59d356\r\n    ];\r\n    //Not real adresses\r\n     uint[] private divList = [\r\n        845,\r\n        100,\r\n        55\r\n    ];\r\n    bool public onlyWhitelisted = true;\r\n    address[] public whitelistedAddresses;\r\n    address payable public payments;\r\n\r\n    string _baseTokenURI;\r\n\r\n    constructor(string memory theBaseURI, uint numToken, address _payments) ERC721(\"BoxingBoyz\", \"BOXINGBOYZ\") {\r\n        setBaseURI(theBaseURI);\r\n        availableToken = numToken;\r\n        payments = payable(_payments);\r\n    }\r\n\r\n    modifier saleIsOpen {\r\n        require(totalSupply() < availableToken, \"Sale has ended\");\r\n        _;\r\n    }\r\n\r\n    function mintBB(uint _count) public payable saleIsOpen {\r\n        require(_count > 0, \"You can't mint 0 BoxingBoyz\");\r\n        require(_count <= maxPurchaseSize, \"Exceeds 5\");\r\n        require(balanceOf(msg.sender) <= maxPerWallet, \"Exceeds 5\");\r\n        require(totalSupply() + _count <= availableToken, \"Not enough token left\");\r\n        require(addressList.length == divList.length, \"PaymentSplitter: adresses and shares are not the same length\");\r\n\r\n        uint256 orderPrice = price.mul(_count);\r\n\r\n        if(msg.sender != owner()){\r\n            if(onlyWhitelisted){\r\n                require(isWhitelisted(msg.sender), \"User is not whitelisted\");\r\n            }\r\n            require(msg.value >= orderPrice, \"Value below price\");\r\n        }\r\n\r\n        for(uint i = 0; i < _count; i++){\r\n            _safeMint(msg.sender, totalSupply()); //Enumerable\r\n        }\r\n\r\n\r\n        //payable(addressList[0]).transfer(orderPrice * (divList[0] / 1000));\r\n        //payable(addressList[1]).transfer(orderPrice * (divList[1] / 1000));\r\n        //payable(addressList[2]).transfer(orderPrice * (divList[2] / 1000));\r\n        payable(payments).transfer(orderPrice);\r\n    }\r\n\r\n    function mintOwnerTo(uint _count, address _to) public payable saleIsOpen onlyOwner {\r\n        require(_count > 0, \"You can't mint 0 BoxingBoyz\");\r\n        require(totalSupply() + _count <= availableToken, \"Not enough token left\");\r\n\r\n        for(uint i = 0; i < _count; i++){\r\n            _safeMint(_to, totalSupply()); //Enumerable\r\n        }\r\n    }\r\n\r\n    function isWhitelisted(address _user) public view returns (bool){\r\n        for (uint256 i = 0; i < whitelistedAddresses.length; i++) {\r\n            if(whitelistedAddresses[i] == _user){\r\n                return true;\r\n            }\r\n        }\r\n        return false;\r\n    }\r\n\r\n    function setBaseURI(string memory baseURI) public onlyOwner {\r\n        _baseTokenURI = baseURI;\r\n    }\r\n\r\n    function _baseURI() internal view virtual override returns (string memory) {\r\n        return _baseTokenURI;\r\n    }\r\n\r\n    function contractURI() public pure returns (string memory) {\r\n        return \"https://www.boxingboyz.com/contract-info.json\";\r\n    }\r\n\r\n    function tokenURI(uint256 tokenId) public view virtual override returns (string memory){\r\n    require(\r\n      _exists(tokenId),\r\n      \"ERC721Metadata: URI query for nonexistent token\"\r\n    );\r\n\r\n    string memory currentBaseURI = _baseURI();\r\n    return bytes(currentBaseURI).length > 0\r\n        ? string(abi.encodePacked(currentBaseURI, (tokenId + 1).toString(), baseExtension))\r\n        : \"\";\r\n  }\r\n\r\n    function walletOfOwner(address _owner) external view returns(uint256[] memory) {\r\n        uint tokenCount = balanceOf(_owner);\r\n\r\n        uint256[] memory tokensId = new uint256[](tokenCount);\r\n        for(uint i = 0; i < tokenCount; i++){\r\n            tokensId[i] = tokenOfOwnerByIndex(_owner, i);\r\n        }\r\n\r\n        return tokensId;\r\n    }\r\n\r\n    function whitelistUsers(address[] calldata _users) public onlyOwner {\r\n        delete whitelistedAddresses;\r\n        whitelistedAddresses = _users;\r\n    }\r\n\r\n    function setOnlyWhitelisted(bool _state) public onlyOwner {\r\n        onlyWhitelisted = _state;\r\n    }\r\n}\r\n\r\n\r\n\r\n\r\n//This smartcontract is written by Koen Vermeulen. This is still a concept ERC721 contract. This text will be deleted when deployed fully.",
  "sourcePath": "D:\\werk\\coding\\NoLimit\\NoLimit Portal\\BoxingBoyzNFT\\nft\\contracts\\BoxingBoyz.sol",
  "compiler": {
    "name": "solc",
    "version": "0.8.0+commit.c7dfd78e.Emscripten.clang"
  },
  "schemaVersion": "3.4.3",
  "updatedAt": "2021-12-14T14:59:16.271Z",
  "devdoc": {
    "kind": "dev",
    "methods": {
      "approve(address,uint256)": {
        "details": "See {IERC721-approve}."
      },
      "balanceOf(address)": {
        "details": "See {IERC721-balanceOf}."
      },
      "getApproved(uint256)": {
        "details": "See {IERC721-getApproved}."
      },
      "isApprovedForAll(address,address)": {
        "details": "See {IERC721-isApprovedForAll}."
      },
      "name()": {
        "details": "See {IERC721Metadata-name}."
      },
      "owner()": {
        "details": "Returns the address of the current owner."
      },
      "ownerOf(uint256)": {
        "details": "See {IERC721-ownerOf}."
      },
      "renounceOwnership()": {
        "details": "Leaves the contract without owner. It will not be possible to call `onlyOwner` functions anymore. Can only be called by the current owner. NOTE: Renouncing ownership will leave the contract without an owner, thereby removing any functionality that is only available to the owner."
      },
      "safeTransferFrom(address,address,uint256)": {
        "details": "See {IERC721-safeTransferFrom}."
      },
      "safeTransferFrom(address,address,uint256,bytes)": {
        "details": "See {IERC721-safeTransferFrom}."
      },
      "setApprovalForAll(address,bool)": {
        "details": "See {IERC721-setApprovalForAll}."
      },
      "supportsInterface(bytes4)": {
        "details": "See {IERC165-supportsInterface}."
      },
      "symbol()": {
        "details": "See {IERC721Metadata-symbol}."
      },
      "tokenByIndex(uint256)": {
        "details": "See {IERC721Enumerable-tokenByIndex}."
      },
      "tokenOfOwnerByIndex(address,uint256)": {
        "details": "See {IERC721Enumerable-tokenOfOwnerByIndex}."
      },
      "tokenURI(uint256)": {
        "details": "See {IERC721Metadata-tokenURI}."
      },
      "totalSupply()": {
        "details": "See {IERC721Enumerable-totalSupply}."
      },
      "transferFrom(address,address,uint256)": {
        "details": "See {IERC721-transferFrom}."
      },
      "transferOwnership(address)": {
        "details": "Transfers ownership of the contract to a new account (`newOwner`). Can only be called by the current owner."
      }
    },
    "version": 1
  },
  "userdoc": {
    "kind": "user",
    "methods": {},
    "version": 1
  }
}