{
  "contractName": "Payments",
  "abi": [
    {
      "inputs": [
        {
          "internalType": "address[]",
          "name": "_payees",
          "type": "address[]"
        },
        {
          "internalType": "uint256[]",
          "name": "_shares",
          "type": "uint256[]"
        }
      ],
      "stateMutability": "nonpayable",
      "type": "constructor"
    },
    {
      "anonymous": false,
      "inputs": [
        {
          "indexed": false,
          "internalType": "address",
          "name": "account",
          "type": "address"
        },
        {
          "indexed": false,
          "internalType": "uint256",
          "name": "shares",
          "type": "uint256"
        }
      ],
      "name": "PayeeAdded",
      "type": "event"
    },
    {
      "anonymous": false,
      "inputs": [
        {
          "indexed": false,
          "internalType": "address",
          "name": "from",
          "type": "address"
        },
        {
          "indexed": false,
          "internalType": "uint256",
          "name": "amount",
          "type": "uint256"
        }
      ],
      "name": "PaymentReceived",
      "type": "event"
    },
    {
      "anonymous": false,
      "inputs": [
        {
          "indexed": false,
          "internalType": "address",
          "name": "to",
          "type": "address"
        },
        {
          "indexed": false,
          "internalType": "uint256",
          "name": "amount",
          "type": "uint256"
        }
      ],
      "name": "PaymentReleased",
      "type": "event"
    },
    {
      "inputs": [
        {
          "internalType": "uint256",
          "name": "index",
          "type": "uint256"
        }
      ],
      "name": "payee",
      "outputs": [
        {
          "internalType": "address",
          "name": "",
          "type": "address"
        }
      ],
      "stateMutability": "view",
      "type": "function"
    },
    {
      "inputs": [
        {
          "internalType": "address payable",
          "name": "account",
          "type": "address"
        }
      ],
      "name": "release",
      "outputs": [],
      "stateMutability": "nonpayable",
      "type": "function"
    },
    {
      "inputs": [
        {
          "internalType": "address",
          "name": "account",
          "type": "address"
        }
      ],
      "name": "released",
      "outputs": [
        {
          "internalType": "uint256",
          "name": "",
          "type": "uint256"
        }
      ],
      "stateMutability": "view",
      "type": "function"
    },
    {
      "inputs": [
        {
          "internalType": "address",
          "name": "account",
          "type": "address"
        }
      ],
      "name": "shares",
      "outputs": [
        {
          "internalType": "uint256",
          "name": "",
          "type": "uint256"
        }
      ],
      "stateMutability": "view",
      "type": "function"
    },
    {
      "inputs": [],
      "name": "totalReleased",
      "outputs": [
        {
          "internalType": "uint256",
          "name": "",
          "type": "uint256"
        }
      ],
      "stateMutability": "view",
      "type": "function"
    },
    {
      "inputs": [],
      "name": "totalShares",
      "outputs": [
        {
          "internalType": "uint256",
          "name": "",
          "type": "uint256"
        }
      ],
      "stateMutability": "view",
      "type": "function"
    },
    {
      "stateMutability": "payable",
      "type": "receive"
    }
  ],
  "bytecode": "0x60806040523480156200001157600080fd5b50604051620016fb380380620016fb833981810160405281019062000037919062000535565b8181805182511462000080576040517f08c379a00000000000000000000000000000000000000000000000000000000081526004016200007790620007d5565b60405180910390fd5b6000825111620000c7576040517f08c379a0000000000000000000000000000000000000000000000000000000008152600401620000be9062000819565b60405180910390fd5b60005b82518110156200017e576200016883828151811062000112577f4e487b7100000000000000000000000000000000000000000000000000000000600052603260045260246000fd5b602002602001015183838151811062000154577f4e487b7100000000000000000000000000000000000000000000000000000000600052603260045260246000fd5b60200260200101516200018960201b60201c565b808062000175906200099b565b915050620000ca565b505050505062000a7b565b600073ffffffffffffffffffffffffffffffffffffffff168273ffffffffffffffffffffffffffffffffffffffff161415620001fc576040517f08c379a0000000000000000000000000000000000000000000000000000000008152600401620001f390620007b3565b60405180910390fd5b6000811162000242576040517f08c379a000000000000000000000000000000000000000000000000000000000815260040162000239906200083b565b60405180910390fd5b6000600260008473ffffffffffffffffffffffffffffffffffffffff1673ffffffffffffffffffffffffffffffffffffffff1681526020019081526020016000205414620002c7576040517f08c379a0000000000000000000000000000000000000000000000000000000008152600401620002be90620007f7565b60405180910390fd5b6004829080600181540180825580915050600190039060005260206000200160009091909190916101000a81548173ffffffffffffffffffffffffffffffffffffffff021916908373ffffffffffffffffffffffffffffffffffffffff16021790555080600260008473ffffffffffffffffffffffffffffffffffffffff1673ffffffffffffffffffffffffffffffffffffffff16815260200190815260200160002081905550806000546200037e919062000900565b6000819055507f40c340f65e17194d14ddddb073d3c9f888e3cb52b5aae0c6c7706b4fbc905fac8282604051620003b792919062000786565b60405180910390a15050565b6000620003da620003d48462000891565b6200085d565b90508083825260208201905082856020860282011115620003fa57600080fd5b60005b858110156200042e5781620004138882620004ad565b845260208401935060208301925050600181019050620003fd565b5050509392505050565b60006200044f6200044984620008c0565b6200085d565b905080838252602082019050828560208602820111156200046f57600080fd5b60005b85811015620004a357816200048888826200051e565b84526020840193506020830192505060018101905062000472565b5050509392505050565b600081519050620004be8162000a47565b92915050565b600082601f830112620004d657600080fd5b8151620004e8848260208601620003c3565b91505092915050565b600082601f8301126200050357600080fd5b81516200051584826020860162000438565b91505092915050565b6000815190506200052f8162000a61565b92915050565b600080604083850312156200054957600080fd5b600083015167ffffffffffffffff8111156200056457600080fd5b6200057285828601620004c4565b925050602083015167ffffffffffffffff8111156200059057600080fd5b6200059e85828601620004f1565b9150509250929050565b620005b3816200095d565b82525050565b6000620005c8602c83620008ef565b91507f5061796d656e7453706c69747465723a206163636f756e74206973207468652060008301527f7a65726f206164647265737300000000000000000000000000000000000000006020830152604082019050919050565b600062000630603283620008ef565b91507f5061796d656e7453706c69747465723a2070617965657320616e64207368617260008301527f6573206c656e677468206d69736d6174636800000000000000000000000000006020830152604082019050919050565b600062000698602b83620008ef565b91507f5061796d656e7453706c69747465723a206163636f756e7420616c726561647960008301527f20686173207368617265730000000000000000000000000000000000000000006020830152604082019050919050565b600062000700601a83620008ef565b91507f5061796d656e7453706c69747465723a206e6f207061796565730000000000006000830152602082019050919050565b600062000742601d83620008ef565b91507f5061796d656e7453706c69747465723a207368617265732061726520300000006000830152602082019050919050565b620007808162000991565b82525050565b60006040820190506200079d6000830185620005a8565b620007ac602083018462000775565b9392505050565b60006020820190508181036000830152620007ce81620005b9565b9050919050565b60006020820190508181036000830152620007f08162000621565b9050919050565b60006020820190508181036000830152620008128162000689565b9050919050565b600060208201905081810360008301526200083481620006f1565b9050919050565b60006020820190508181036000830152620008568162000733565b9050919050565b6000604051905081810181811067ffffffffffffffff8211171562000887576200088662000a18565b5b8060405250919050565b600067ffffffffffffffff821115620008af57620008ae62000a18565b5b602082029050602081019050919050565b600067ffffffffffffffff821115620008de57620008dd62000a18565b5b602082029050602081019050919050565b600082825260208201905092915050565b60006200090d8262000991565b91506200091a8362000991565b9250827fffffffffffffffffffffffffffffffffffffffffffffffffffffffffffffffff03821115620009525762000951620009e9565b5b828201905092915050565b60006200096a8262000971565b9050919050565b600073ffffffffffffffffffffffffffffffffffffffff82169050919050565b6000819050919050565b6000620009a88262000991565b91507fffffffffffffffffffffffffffffffffffffffffffffffffffffffffffffffff821415620009de57620009dd620009e9565b5b600182019050919050565b7f4e487b7100000000000000000000000000000000000000000000000000000000600052601160045260246000fd5b7f4e487b7100000000000000000000000000000000000000000000000000000000600052604160045260246000fd5b62000a52816200095d565b811462000a5e57600080fd5b50565b62000a6c8162000991565b811462000a7857600080fd5b50565b610c708062000a8b6000396000f3fe6080604052600436106100595760003560e01c806319165587146100a55780633a98ef39146100ce5780638b83209b146100f95780639852595c14610136578063ce7c2ac214610173578063e33b7de3146101b0576100a0565b366100a0577f6ef95f06320e7a25a04a175ca677b7052bdd97131872c2192525a629f51be7706100876101db565b3460405161009692919061091e565b60405180910390a1005b600080fd5b3480156100b157600080fd5b506100cc60048036038101906100c791906106ba565b6101e3565b005b3480156100da57600080fd5b506100e361044b565b6040516100f091906109c7565b60405180910390f35b34801561010557600080fd5b50610120600480360381019061011b91906106e3565b610454565b60405161012d91906108da565b60405180910390f35b34801561014257600080fd5b5061015d60048036038101906101589190610691565b6104c2565b60405161016a91906109c7565b60405180910390f35b34801561017f57600080fd5b5061019a60048036038101906101959190610691565b61050b565b6040516101a791906109c7565b60405180910390f35b3480156101bc57600080fd5b506101c5610554565b6040516101d291906109c7565b60405180910390f35b600033905090565b6000600260008373ffffffffffffffffffffffffffffffffffffffff1673ffffffffffffffffffffffffffffffffffffffff1681526020019081526020016000205411610265576040517f08c379a000000000000000000000000000000000000000000000000000000000815260040161025c90610947565b60405180910390fd5b60006001544761027591906109fe565b90506000600360008473ffffffffffffffffffffffffffffffffffffffff1673ffffffffffffffffffffffffffffffffffffffff16815260200190815260200160002054600054600260008673ffffffffffffffffffffffffffffffffffffffff1673ffffffffffffffffffffffffffffffffffffffff16815260200190815260200160002054846103079190610a85565b6103119190610a54565b61031b9190610adf565b90506000811415610361576040517f08c379a0000000000000000000000000000000000000000000000000000000008152600401610358906109a7565b60405180910390fd5b80600360008573ffffffffffffffffffffffffffffffffffffffff1673ffffffffffffffffffffffffffffffffffffffff168152602001908152602001600020546103ac91906109fe565b600360008573ffffffffffffffffffffffffffffffffffffffff1673ffffffffffffffffffffffffffffffffffffffff16815260200190815260200160002081905550806001546103fd91906109fe565b60018190555061040d838261055e565b7fdf20fd1e76bc69d672e4814fafb2c449bba3a5369d8359adf9e05e6fde87b056838260405161043e9291906108f5565b60405180910390a1505050565b60008054905090565b600060048281548110610490577f4e487b7100000000000000000000000000000000000000000000000000000000600052603260045260246000fd5b9060005260206000200160009054906101000a900473ffffffffffffffffffffffffffffffffffffffff169050919050565b6000600360008373ffffffffffffffffffffffffffffffffffffffff1673ffffffffffffffffffffffffffffffffffffffff168152602001908152602001600020549050919050565b6000600260008373ffffffffffffffffffffffffffffffffffffffff1673ffffffffffffffffffffffffffffffffffffffff168152602001908152602001600020549050919050565b6000600154905090565b804710156105a1576040517f08c379a000000000000000000000000000000000000000000000000000000000815260040161059890610987565b60405180910390fd5b60008273ffffffffffffffffffffffffffffffffffffffff16826040516105c7906108c5565b60006040518083038185875af1925050503d8060008114610604576040519150601f19603f3d011682016040523d82523d6000602084013e610609565b606091505b505090508061064d576040517f08c379a000000000000000000000000000000000000000000000000000000000815260040161064490610967565b60405180910390fd5b505050565b60008135905061066181610bf5565b92915050565b60008135905061067681610c0c565b92915050565b60008135905061068b81610c23565b92915050565b6000602082840312156106a357600080fd5b60006106b184828501610652565b91505092915050565b6000602082840312156106cc57600080fd5b60006106da84828501610667565b91505092915050565b6000602082840312156106f557600080fd5b60006107038482850161067c565b91505092915050565b61071581610b61565b82525050565b61072481610b13565b82525050565b60006107376026836109ed565b91507f5061796d656e7453706c69747465723a206163636f756e7420686173206e6f2060008301527f73686172657300000000000000000000000000000000000000000000000000006020830152604082019050919050565b600061079d603a836109ed565b91507f416464726573733a20756e61626c6520746f2073656e642076616c75652c207260008301527f6563697069656e74206d617920686176652072657665727465640000000000006020830152604082019050919050565b6000610803601d836109ed565b91507f416464726573733a20696e73756666696369656e742062616c616e63650000006000830152602082019050919050565b6000610843602b836109ed565b91507f5061796d656e7453706c69747465723a206163636f756e74206973206e6f742060008301527f647565207061796d656e740000000000000000000000000000000000000000006020830152604082019050919050565b60006108a96000836109e2565b9150600082019050919050565b6108bf81610b57565b82525050565b60006108d08261089c565b9150819050919050565b60006020820190506108ef600083018461071b565b92915050565b600060408201905061090a600083018561070c565b61091760208301846108b6565b9392505050565b6000604082019050610933600083018561071b565b61094060208301846108b6565b9392505050565b600060208201905081810360008301526109608161072a565b9050919050565b6000602082019050818103600083015261098081610790565b9050919050565b600060208201905081810360008301526109a0816107f6565b9050919050565b600060208201905081810360008301526109c081610836565b9050919050565b60006020820190506109dc60008301846108b6565b92915050565b600081905092915050565b600082825260208201905092915050565b6000610a0982610b57565b9150610a1483610b57565b9250827fffffffffffffffffffffffffffffffffffffffffffffffffffffffffffffffff03821115610a4957610a48610b97565b5b828201905092915050565b6000610a5f82610b57565b9150610a6a83610b57565b925082610a7a57610a79610bc6565b5b828204905092915050565b6000610a9082610b57565b9150610a9b83610b57565b9250817fffffffffffffffffffffffffffffffffffffffffffffffffffffffffffffffff0483118215151615610ad457610ad3610b97565b5b828202905092915050565b6000610aea82610b57565b9150610af583610b57565b925082821015610b0857610b07610b97565b5b828203905092915050565b6000610b1e82610b37565b9050919050565b6000610b3082610b37565b9050919050565b600073ffffffffffffffffffffffffffffffffffffffff82169050919050565b6000819050919050565b6000610b6c82610b73565b9050919050565b6000610b7e82610b85565b9050919050565b6000610b9082610b37565b9050919050565b7f4e487b7100000000000000000000000000000000000000000000000000000000600052601160045260246000fd5b7f4e487b7100000000000000000000000000000000000000000000000000000000600052601260045260246000fd5b610bfe81610b13565b8114610c0957600080fd5b50565b610c1581610b25565b8114610c2057600080fd5b50565b610c2c81610b57565b8114610c3757600080fd5b5056fea264697066735822122021e2d72e7b720f83e5466758743e5805243dc566275b78a14731687593ab53a664736f6c63430008000033",
  "immutableReferences": {},
  "source": "// SPDX-License-Identifier: MIT\r\npragma solidity ^0.8.0;\r\n\r\nimport \"@openzeppelin/contracts/finance/PaymentSplitter.sol\";\r\n\r\ncontract Payments is PaymentSplitter{\r\n    constructor(address[] memory _payees, uint256[] memory _shares) PaymentSplitter(_payees, _shares){\r\n        \r\n    }\r\n}",
  "sourcePath": "D:\\werk\\coding\\NoLimit\\NoLimit Portal\\BoxingBoyzNFT\\nft\\contracts\\Payments.sol",
  "compiler": {
    "name": "solc",
    "version": "0.8.0+commit.c7dfd78e.Emscripten.clang"
  },
  "schemaVersion": "3.4.3",
  "updatedAt": "2021-12-14T14:59:16.349Z",
  "devdoc": {
    "kind": "dev",
    "methods": {
      "payee(uint256)": {
        "details": "Getter for the address of the payee number `index`."
      },
      "release(address)": {
        "details": "Triggers a transfer to `account` of the amount of Ether they are owed, according to their percentage of the total shares and their previous withdrawals."
      },
      "released(address)": {
        "details": "Getter for the amount of Ether already released to a payee."
      },
      "shares(address)": {
        "details": "Getter for the amount of shares held by an account."
      },
      "totalReleased()": {
        "details": "Getter for the total amount of Ether already released."
      },
      "totalShares()": {
        "details": "Getter for the total shares held by payees."
      }
    },
    "version": 1
  },
  "userdoc": {
    "kind": "user",
    "methods": {},
    "version": 1
  }
}